:100000000C9434000C9451000C9451000C94510049
:100010000C9451000C9451000C9451000C9451001C
:100020000C9451000C9451000C9451000C9451000C
:100030000C9451000C9451000C9451000C945100FC
:100040000C9451000C9451000C9451000C945100EC
:100050000C9451000C9451000C9451000C945100DC
:100060000C9451000C94510011241FBECFEFD8E026
:10007000DEBFCDBF11E0A0E0B1E0E8E6F1E002C0F4
:1000800005900D92A230B107D9F711E0A2E0B1E0DE
:1000900001C01D92A430B107E1F70E945F000C94EB
:1000A000B2000C9400008EBD01C02D9A0DB407FE65
:1000B000FCCF81E28A95F1F785B185B908958F92D9
:1000C0009F92AF92BF92CF92DF92EF92FF920F93E7
:1000D0001F93CF93DF9383E08AB988EA84B98CB504
:1000E000836F8CBD81E090E09093030180930201C7
:1000F000299A81E08BB930E8A32EB12C882483940F
:1001000022E0C22ED12CC0E5D3EC92E0992E81E002
:10011000E82EF12C04ED10E319991CC0B0920301F4
:10012000A09202018091000190910101813091051E
:1001300019F0029779F406C08BB8D0920101C092F1
:10014000000105C09BB8F0920101E0920001CE01D0
:100150000197F1F7809102010E945300C8010197B5
:08016000F1F7DACFF894FFCFAC
:02016800010094
:00000001FF
