:100000000C9434000C9451000C9451000C94510049
:100010000C9451000C9451000C9451000C9451001C
:100020000C9451000C9451000C9451000C9451000C
:100030000C9451000C9451000C9451000C945100FC
:100040000C9451000C9451000C940E010C9451002E
:100050000C94AA000C9451000C9451000C94510083
:100060000C9451000C94510011241FBECFEFD8E026
:10007000DEBFCDBF11E0A0E0B1E0ECE5F4E002C0EE
:1000800005900D92A831B107D9F715E0A8E1B1E0CC
:1000900001C01D92AA32B107E1F70E9457010C94EA
:1000A0002C020C940000E0ECF0E080818260808300
:1000B000E1ECF0E08081886D8083E2ECF0E080810B
:1000C000866080838CE090E09093C5008093C400AC
:1000D0000895482F8091C00085FF09C080911C01C0
:1000E00090911D01892B19F44093C6000895209129
:1000F0001C0130911D012F3F3105E8F4809118015A
:1001000090911901FC01EE0FFF1FE45DFC4F40834D
:1001100011822F5F3F4F30931D0120931C010196E8
:1001200090931901809318018F3F910521F410924B
:100130001901109218010895CF93DF93EC0104C0C8
:10014000219690E00E94690088818823C9F7DF9199
:10015000CF9108951F920F920FB60F9211242F93F3
:100160004F935F938F939F93EF93FF9340911C0165
:1001700050911D0141155105F1F080911A019091A6
:100180001B01FC01EE0FFF1FE45DFC4F208120935B
:10019000C6004150504050931D0140931C010196F0
:1001A00090931B0180931A018F3F910521F41092C7
:1001B0001B0110921A01FF91EF919F918F915F9116
:1001C0004F912F910F900FBE0F901F901895209177
:1001D0002201309123012115310511F4E0E01CC00A
:1001E0008091200190912101FC01EE0FFF1FE25D43
:1001F000FE4FE081215030403093230120932201B3
:10020000019690932101809320018F3F910521F465
:1002100010922101109220018E2F08951F920F92AB
:100220000FB60F9211242F934F935F938F939F9349
:10023000EF93FF9340912201509123014F3F5105CD
:10024000F8F480911E0190911F012091C600FC01DD
:10025000EE0FFF1FE25DFE4F208311820196909307
:100260001F0180931E018F3F910521F410921F0101
:1002700010921E014F5F5F4F509323014093220164
:10028000FF91EF919F918F915F914F912F910F90DF
:100290000FBE0F901F901895E0EBF0E08081836A0D
:1002A0008083E1EBF0E08081836080830895BF92DA
:1002B000CF92DF92EF92FF920F931F93CF93DF9332
:1002C0000E94530078948091B000836A8093B000BC
:1002D0008091B10083608093B10088E88AB989E099
:1002E00084B9C4ECD9E010E8B12E01E0B4E6CB2E1D
:1002F000D12CA8EAEA2EA1E6FA2E80912201909153
:100300002301892B09F4A4C0CE010197F1F70E94C3
:10031000E700833799F40E94E700843779F40E945C
:10032000E7008F3659F40E94E700803739F480E007
:1003300091E00E949C00109225010AC00E94E700F3
:10034000873731F485E091E00E949C0000932501FD
:1003500080912501882309F479C005B91BB80E9452
:10036000E700182F0E94E7001C3411F08235D1F409
:100370000E94E700823539F48AE091E00E949C00F7
:10038000109224010BC00E94E7008C3409F04BC08E
:1003900081E191E00E949C0000932401CE0101972D
:1003A000F1F741C00E94E70090E0C09790932B01C5
:1003B00080932A010E94E70090E0C09790932D015E
:1003C00080932C010E94E70090E0C0979093270152
:1003D0008093260120912A0130912B012C9DB001A0
:1003E0002D9D700D3C9D700D112470932B01609319
:1003F0002A0120912C0130912D01A901F3E0440F35
:10040000551FFA95E1F7220F331F420F531F5093E8
:100410002D0140932C01460F571F480F591F509331
:1004200029014093280180912401882329F4809197
:1004300028018093B30006C0813051F480912801D7
:100440008093B400CE010197F1F702C0BBB815B894
:0C045000C7010197F1F751CFF894FFCFDE
:10045C0053746F7000576F726B0052696768740A3F
:08046C00004C6566740A0000F3
:00000001FF
