:100000000C9434000C9451000C9451000C94510049
:100010000C9451000C9451000C9451000C9451001C
:100020000C9451000C9451000C9451000C9451000C
:100030000C9451000C9451000C9451000C945100FC
:100040000C9451000C9451000C9451000C945100EC
:100050000C94B1000C9451000C9451000C9451007C
:100060000C9451000C94510011241FBECFEFD8E026
:10007000DEBFCDBF11E0A0E0B1E0ECEFF1E002C0E7
:1000800005900D92AC30B107D9F711E0ACE0B1E0CA
:1000900001C01D92A632B107E1F70E94ED000C9459
:1000A000FC000C940000982F8091C00085FFFCCFCD
:1000B0009093C6000895E0ECF0E080818260808338
:1000C000E1ECF0E0808188648083E2ECF0E0808104
:1000D000866080838CE090E09093C5008093C4009C
:1000E0000895482F8091C00085FF09C080911001BC
:1000F00090911101892B19F44093C6000895209125
:100100001001309111012A303105E0F480910C0189
:1001100090910D01FC01EE0FFF1FEE5EFE4F40833C
:1001200011822F5F3F4F30931101209310010196F0
:1001300090930D0180930C010A9721F410920D0108
:1001400010920C010895CF93DF93EC0104C0219627
:1001500090E00E94710088818823C9F7DF91CF91D8
:1001600008951F920F920FB60F9211242F934F9361
:100170005F938F939F93EF93FF9340911001509162
:10018000110141155105E9F080910E0190910F0187
:10019000FC01EE0FFF1FEE5EFE4F20812093C60094
:1001A000415050405093110140931001019690939B
:1001B0000F0180930E010A9721F410920F01109203
:1001C0000E01FF91EF919F918F915F914F912F9130
:1001D0000F900FBE0F901F901895CF93DF930E9442
:1001E0005B007894C8E8D3E180E091E00E94A3002E
:0C01F000CE010197F1F7F8CFF894FFCF93
:0C01FC004343435020534C415645000043
:00000001FF
