:100000000C9434000C9451000C9451000C94510049
:100010000C9451000C9451000C9451000C9451001C
:100020000C9451000C9451000C9451000C9451000C
:100030000C9451000C9451000C9451000C945100FC
:100040000C9451000C9451000C940A010C94510032
:100050000C94A9000C9451000C9451000C94510084
:100060000C9451000C94510011241FBECFEFD8E026
:10007000DEBFCDBF11E0A0E0B1E0EAE7F5E002C0ED
:1000800005900D92AA33B107D9F711E0AAE3B1E0C8
:1000900001C01D92AB3DB107E1F70E9490010C94A5
:1000A000BB020C940000E0ECF0E080818260808371
:1000B000E1ECF0E08081886D8083E2ECF0E080810B
:1000C000866080838CE090E09093C5008093C400AC
:1000D0000895482F8091C00085FF09C080913E019E
:1000E00090913F01892B19F44093C6000895209107
:1000F0003E0130913F0124323105E0F480913C0112
:1001000090913D01FC01EE0FFF1FE85BFE4F408325
:1001100011822F5F3F4F30933F0120933E010196A4
:1001200090933D0180933C01849721F410923D010E
:1001300010923C010895CF93DF93EC0104C0219607
:1001400090E00E94690088818823C9F7DF91CF91F0
:1001500008951F920F920FB60F9211242F934F9371
:100160005F938F939F93EF93FF9340913E01509144
:100170003F0141155105E9F080913A0190913B0111
:10018000FC01EE0FFF1FE85BFE4F20812093C600AD
:100190004150504050933F0140933E01019690934F
:1001A0003B0180933A01849721F410923B01109215
:1001B0003A01FF91EF919F918F915F914F912F9114
:1001C0000F900FBE0F901F90189520914401309111
:1001D000450121153105E9F08091400190914101DF
:1001E000FC01EE0FFF1FEE56FE4FE0812150304024
:1001F00030934501209344010196909341018093EF
:100200004001849721F410924101109240018E2FF9
:10021000089508951F920F920FB60F9211242F93F5
:100220003F934F935F938F939F93EF93FF9320910F
:100230004401309145012432310538F540914201A5
:10024000509143018091C60090E0FA01EE0FFF1F2C
:10025000EE56FE4F918380830D9729F480914701DC
:100260008F5F809347012F5F3F4F3093450120936D
:100270004401CA01019690934301809342018497FF
:1002800021F41092430110924201FF91EF919F914E
:100290008F915F914F913F912F910F900FBE0F90D3
:1002A0001F901895E0EBF0E08081836A8083E1EB9A
:1002B000F0E08081826080830895CF93DF93EC012A
:1002C00003C00E94E50089938D30D9F780914701E2
:1002D000815080934701DF91CF9108951F93182F8C
:1002E00064E60E9488026AE00E948802892F805D8D
:1002F0000E946900812F64E60E948802192F892FCD
:100300006AE00E948802805D0E946900812F6AE095
:100310000E948802892F805D0E9469001F910895C4
:100320008F929F92AF92BF92CF92DF92EF92FF9205
:100330000F931F93CF93DF930E9453007894809183
:10034000B000836A8093B0008091B1008260809396
:10035000B1008AB1886C8AB9239A80E88BB982E3AC
:10036000809346018093DA018AEB8093B3008093F7
:10037000B40064E6B62E5AE0D52E4DE7C42EC8E888
:10038000D3E18824839438E4932E28E8A22E92E3C4
:10039000E92E8AEBF82E09E110E0809147018823CD
:1003A00009F4ADC081E991E00E945D0140919101A5
:1003B000509192016091930180E0433509F481E00E
:1003C00090E0543509F491E0892390E020E030E09A
:1003D000623411F421E030E082239323892B59F019
:1003E00010929001ABB8E0924601E092DA01F092EF
:1003F000B300F092B40080E0473509F481E090E06A
:10040000523509F491E0892390E020E030E06B342C
:1004100011F421E030E082239323892B21F0809294
:1004200090019BB824C0573411F5653401F58091D3
:1004300094018435E1F44C3451F0423509F05FC049
:1004400080E091E00E949B008091460106C087E118
:1004500091E00E949B008091DA010E946E0185E28A
:100460000E94690084E191E00E949B0048C0809155
:100470009001813009F043C04C3409F1423509F054
:100480003EC080919401805D5B9D90011124820F9C
:100490006D9D90011124820F809346018AE291E0C4
:1004A0000E949B00809146018C9DC001112464E64E
:1004B00070E00E94940264586093B3001DC0809164
:1004C0009401805D5B9D90011124820F6D9D9001D0
:1004D0001124820F8093DA0182E391E00E949B0055
:1004E0008091DA018C9DC001112464E670E00E94C5
:1004F000940264586093B400CE010197F1F788E844
:1005000093E1F8013197F1F7019709F446CFF9CF5C
:10051000991B79E004C0991F961708F0961B881F55
:100520007A95C9F78095089597FB092E07260AD07A
:1005300077FD04D00CD006D000201AF47095619598
:100540007F4F0895F6F7909581959F4F0895AA1BC8
:10055000BB1B51E107C0AA1FBB1FA617B70710F0AE
:10056000A61BB70B881F991F5A95A9F780959095E0
:0A057000BC01CD010895F894FFCFFF
:10057A0053657276612052696768742073657420C6
:10058A00746F20000D0A005365727661204C65660F
:10059A00742073657420746F200052696768740D43
:0A05AA000A004C6566740D0A00009B
:00000001FF
