:100000000C9434000C9480000C9446000C94460030
:100010000C9446000C9446000C9446000C94460048
:100020000C9446000C9446000C9446000C94460038
:100030000C9446000C9446000C9446000C94460028
:100040000C9446000C9446000C9446000C94460018
:100050000C9446000C9446000C9446000C94460008
:100060000C9446000C94460011241FBECFEFD8E03C
:10007000DEBFCDBF11E0A0E0B1E001C01D92A23013
:10008000B107E1F70E94B4000C9400010C94000049
:1000900084B18E6284B92A9A8CB580658CBD08952E
:1000A0008EBD0DB407FEFDCF8EB5089595B195B9FF
:1000B0008EBD0DB407FEFDCF8EB52A9A08958062DD
:1000C00095B195B98EBD0DB407FEFDCF8EB56EBD51
:1000D0000DB407FEFDCF8EB52A9A0895982F85B1ED
:1000E00085B99EBD0DB407FEFDCF8EB5973031F0BA
:1000F0008FEF8EBD0DB407FEFDCF8EB52A9A089501
:100100001F920F920FB60F9211242F933F934F938C
:100110005F936F937F938F939F93AF93BF93EF936F
:10012000FF9387E00E946E0085FF04C081E080930A
:10013000010105C084FF03C081E08093000187E0D6
:1001400060E70E945F00FF91EF91BF91AF919F9197
:100150008F917F916F915F914F913F912F910F9070
:100160000FBE0F901F9018950F931F93CF93DF939F
:100170000E94480088EA91E60197F1F780E06AE47E
:100180000E945F0084EF91E00197F1F787E060E75C
:100190000E945F0085B185B981EE8EBD0DB407FE6A
:1001A000FDCF8EB52A9A85B185B982EE8EBD0DB48C
:1001B00007FEFDCF8EB52A9A83E08093690081E027
:1001C0008DBB78940EEB1AE0C6EDD3E880EA64E4C8
:1001D0000E945F00299AC8010197F1F785B185B99E
:1001E000CE010197F1F780910101882311F010925F
:1001F000010180910001882349F310920001E6CFAC
:04020000F894FFCFA0
:00000001FF
