:100000000C9434000C9446000C9446000C9446006A
:100010000C9446000C9446000C9446000C94460048
:100020000C9446000C9446000C9446000C94460038
:100030000C9446000C9446000C9446000C94460028
:100040000C9446000C9446000C9446000C94460018
:100050000C9446000C9446000C9446000C94460008
:100060000C9446000C94460011241FBECFEFD8E03C
:10007000DEBFCDBF11E0A0E0B1E001C01D92A7310D
:10008000B107E1F70E9458010C946E010C94000036
:1000900080E28093B800089584EC8093BC00809146
:1000A000BC0087FFFCCF8091BB00089584E880935B
:1000B000BC008091BC0087FFFCCF8091BB000895FD
:1000C00084EA8093BC008091BC0087FFFCCF089538
:1000D00084E98093BC0008958093BB0084E88093FA
:1000E000BC008091BC0087FFFCCF0895843019F1DB
:1000F000853048F48130C9F0813098F08230B9F011
:10010000833089F416C08730E1F0883028F48530D8
:10011000A1F0863041F413C08830A9F0893019F479
:1001200014C08FE3089580E0089586E008958BE57C
:1001300008958FE4089586E608958DE608958DE785
:10014000089587E008958FE708958FE608950F9347
:100150001F9385B18E6085B92898809103010E9414
:1001600076008BB904EC19E0C8010197F1F785B16D
:100170008D6085B92998809102010E9476008BB923
:10018000C8010197F1F785B18B6085B92A988091F4
:1001900001010E9476008BB9C8010197F1F785B182
:1001A000876085B92B98809100010E9476008BB9F9
:1001B000C8010197F1F71F910F91089584EA809388
:1001C000BC008091BC0087FFFCCF80ED8093BB001A
:1001D00084E88093BC008091BC0087FFFCCF8EE058
:1001E0008093BB0084E88093BC008091BC0087FFB3
:1001F000FCCF80E28093BB0084E88093BC008091B8
:10020000BC0087FFFCCF84E98093BC00089584EA9A
:100210008093BC008091BC0087FFFCCF80ED809371
:10022000BB0084E88093BC008091BC0087FFFCCFBA
:100230001092BB0084E88093BC008091BC0087FFD3
:10024000FCCF84E98093BC00E4E0F1E044EA31EDC6
:1002500094E824E94093BC008091BC0087FFFCCF68
:100260003093BB009093BC008091BC0087FFFCCF13
:100270009093BC008091BC0087FFFCCF8091BB00B5
:1002800081932093BC0081E0E731F80719F7809152
:100290000401809300018091050180930101809108
:1002A0000601809302018091070180930301089564
:1002B000CF93DF938FEF8AB984B18F6084B980E2E6
:1002C0008093B8000E94DE00C4EDD0E30E940701D5
:1002D000CE010197F1F70E94A700F8CFF894FFCF65
:00000001FF
