:100000000C9434000C9451000C9451000C94510049
:100010000C9451000C9451000C9451000C9451001C
:100020000C9451000C9451000C9451000C9451000C
:100030000C9451000C9451000C9451000C945100FC
:100040000C9451000C9451000C9405010C94510037
:100050000C94A2000C9451000C9451000C9451008B
:100060000C9451000C94510011241FBECFEFD8E026
:10007000DEBFCDBF11E0A0E0B1E0E2E9F6E002C0F2
:1000800005900D92AA33B107D9F715E0AAE3B1E0C4
:1000900001C01D92AB34B107E1F70E94E0010C945E
:1000A00047030C940000E0ECF0E0808182608083E4
:1000B000E1ECF0E08081886D8083E2ECF0E080810B
:1000C000866080838CE090E09093C5008093C400AC
:1000D0000895282F8091C00085FF09C080913E01BE
:1000E00090913F01892B19F42093C60008958091C7
:1000F0003C0190913D018F3F9105A8F4FC01EE0F6A
:10010000FF1FE65BFE4F20831182019690933D0115
:1001100080933C0180913E0190913F010196909324
:100120003F0180933E010895CF93DF93EC0104C01B
:10013000219690E00E94690088818823C9F7DF91A9
:10014000CF9108951F920F920FB60F9211242F9303
:100150004F935F938F939F93EF93FF9340913E0153
:1001600050913F0141155105F1F080913A01909174
:100170003B01FC01EE0FFF1FE65BFE4F2081209349
:10018000C600019690933B0180933A014150504044
:1001900050933F0140933E018F3F910521F410920F
:1001A0003B0110923A01FF91EF919F918F915F91E6
:1001B0004F912F910F900FBE0F901F901895209187
:1001C00044013091450121153105F1F08091400144
:1001D00090914101FC01EE0FFF1FE75BFC4FE081B6
:1001E000019690934101809340012150304030931B
:1001F0004501209344018954934021F41092410118
:10020000109240018E2F089508951F920F920FB6FD
:100210000F9211242F933F938F939F93EF93FF930C
:1002200020914201309143012F3F310538F58091F3
:10023000C60090E0F901EE0FFF1FE75BFC4F9183D2
:1002400080830D9729F4809146018F5F809346014A
:100250002F5F3F4F3093430120934201809144012F
:1002600090914501019690934501809344012F3F61
:10027000310521F41092430110924201FF91EF9158
:100280009F918F913F912F910F900FBE0F901F90D4
:100290001895CF93DF93EC0103C00E94DF00899390
:1002A0008D30D9F780914601815080934601DF91CE
:1002B000CF910895E0EBF0E08081836A8083E1EBE9
:1002C000F0E080818260808308951F93182F64E698
:1002D0000E9414036AE00E941403892F805D0E942B
:1002E0006900812F64E60E941403192F892F6AE0A8
:1002F0000E941403805D0E946900812F6AE00E94C1
:100300001403892F805D0E9469001F910895843035
:1003100009F1853048F48130B9F0813098F08230AD
:10032000A9F0833019F514C08730D1F0883028F453
:10033000853091F08630D1F411C0883099F0893041
:10034000A9F412C08FE711C086E00FC08BEB0DC07F
:100350008FE90BC08EEC09C08DED07C08DEF05C095
:100360008FE003C08FEF01C08FED85B984EC99E079
:100370000197F1F708959C0168EE73E00E94200355
:1003800060934705C90168EE73E00E94200364E6AC
:1003900070E00E94200360934905C90164E670E0A3
:1003A0000E9420036AE070E00E94200360934901EC
:1003B000C9016AE070E00E9420038093470108951C
:1003C0002F923F924F925F926F927F928F929F9265
:1003D000AF92BF92CF92DF92EF92FF920F931F9353
:1003E000CF93DF930E94530078948091B000836A8A
:1003F0008093B0008091B10082608093B1008AB197
:10040000886C8AB984B18FEF84B987B18F6087B95E
:100410005F9A88B18E6088B982E3809348018093A7
:100420004A058AEB8093B3008093B40082E390E0A6
:100430000E94BB01BEE02B2ECAEFD0E0ADE04A2EF9
:10044000FBE03F2EE7E05E2E74E6972E6AE0A62ED4
:100450005DE7B52E04EC19E07724739440E4642E34
:1004600032E3C32E20E8822E9AEBD92E82EEE82EBC
:1004700084E0F82E80E00E94870128B8809147012F
:100480000E948701CE010197F1F748B88091490198
:100490000E948701CE010197F1F738B88091490594
:1004A0000E948701CE010197F1F758B88091470566
:1004B0000E948701CE010197F1F7809146018823C0
:1004C00009F4AEC088E495E00E9449018091480596
:1004D0008335B9F480914905843599F480914A05B2
:1004E000823479F41092480382E390E00E94BB01C9
:1004F000C0924801C0924A058BB8D092B300D09206
:10050000B40080914805873579F48091490582359A
:1005100059F480914A058B3439F4709248036BB8D2
:1005200082E390E00E94BB0190914905973431F538
:1005300080914A05853411F580914B058435F1F49D
:10054000809148058C3451F0823509F069C080E013
:1005500091E00E9494008091480106C087E191E0FB
:100560000E94940080914A050E94650185E20E94E4
:10057000690084E191E00E94940052C08091480398
:10058000813009F04DC0809148058C3419F18235D5
:1005900009F046C020914B05205D999DC0011124B2
:1005A000280F80914A058A9DC0011124280F2093AD
:1005B00048018AE291E00E949400209148012B9D1D
:1005C000C001112464E670E00E9434036458609313
:1005D000B3001FC020914B05205D999DC0011124DF
:1005E000280F80914A058A9DC0011124280F20936D
:1005F0004A0582E391E00E94940020914A052B9DD8
:10060000C001112464E670E00E94340364586093D2
:10061000B400822F90E00E94BB01C8010197F1F75E
:10062000C7010197F1F726CF991B79E004C0991F04
:10063000961708F0961B881F7A95C9F7809508953C
:10064000AA1BBB1B51E107C0AA1FBB1FA617B707F8
:1006500010F0A61BB70B881F991F5A95A9F7809514
:100660009095BC01CD01089597FB092E07260AD06D
:1006700077FD04D0E5DF06D000201AF4709561956F
:100680007F4F0895F6F7909581959F4F0895F894C0
:02069000FFCF9A
:1006920053657276612052696768742073657420AD
:1006A200746F20000D0A005365727661204C6566F6
:1006B200742073657420746F200052696768740D2A
:0A06C2000A004C6566740D0A000082
:00000001FF
