:100000000C9434000C9446000C9446000C9446006A
:100010000C9446000C9446000C9446000C94460048
:100020000C9446000C9446000C9446000C94460038
:100030000C9446000C9446000C9446000C94460028
:100040000C9446000C9446000C9446000C94460018
:100050000C9446000C9446000C9446000C94460008
:100060000C9446000C94460011241FBECFEFD8E03C
:10007000DEBFCDBF11E0A0E0B1E001C01D92A13014
:10008000B107E1F70E944F000C9465000C9400004A
:1000900084EC80937A0080E280937C0008950E9433
:1000A00048000E94560080917A00FDCF239A93E881
:1000B0009093B000E1EBF0E0808185608083569AF8
:0E00C00094BD85B5856085BD0895F894FFCF89
:00000001FF
